:020000040800F2
:10000000F01400204501000831240008C123000835
:10001000F9230008F10D00088D5C000800000000C5
:10002000000000000000000000000000DD330008B8
:10003000E117000800000000ED2700088B430008CE
:10004000ED5C00085F0100085F0100089D2C0008BE
:100050005F0100085F0100085F0100085F01000800
:100060005F0100085F0100085F0100085F010008F0
:100070005F0100085F0100085F0100085F010008E0
:100080005F0100085F0100085F0100085F010008D0
:100090005F0100085F0100085F0100085F010008C0
:1000A0005F0100085F0100085F0100085F010008B0
:1000B0005F010008714400085F0100085F0100084B
:1000C0005F0100085F0100085F0100085F01000890
:1000D0005F01000855540008C95500085F01000879
:1000E0005F0100085F0100085F0100085F01000870
:1000F0005F0100085F0100085F0100085F01000860
:100100005F0100085F0100085F0100085F0100084F
:100110003D5200085F0100085F0100085F01000810
:100120005F0100085F0100085F0100085F0100082F
:10013000DFF80CD000F0AEFC004800475D69000815
:10014000F01400200648804706480047FEE7FEE717
:10015000FEE7FEE7FEE7FEE7FEE7FEE7FEE7FEE777
:1001600011440008310100080649074A0868504355
:1001700043F23902104408604008704701490860A2
:10018000704700009C0000206D4EC64140EA01030C
:100190009B0703D009E008C9121F08C0042AFAD23D
:1001A00003E011F8013B00F8013B521EF9D2704701
:1001B000D2B201E000F8012B491EFBD270470022A9
:1001C000F6E710B513460A4604461946FFF7F0FF56
:1001D000204610BD421C10F8011B0029FBD1801ADB
:1001E0007047F0B480EA0102D40F4200B2EB410F35
:1001F00002D20246084611464A0042D0C30DDDB283
:10020000C1F3C752AD1A202D35DAC1F3160141F4FE
:10021000000204B15242C5F1200602FA06F12A4159
:100220001044B3EBD05F23D0C4B1012DA0EBC35079
:1002300009DCF0BC4FF0004202EAC35200F50000B6
:10024000DBB200F082BB400000F1807000EBC350D5
:10025000A0F1807040EAD170490009E0490841EA04
:10026000C071A0EBC35000F50000400800EBC35084
:10027000F0BC00F061BB6142012202EB4101001BB6
:10028000F6E7F0BC704781F00041AAE780F000403B
:10029000A7E780EA010210B502F00043400026D033
:1002A0004A0023D04FEA106101EB1261C0F35600FF
:1002B000C2F3560240F4000042F40002A0FB022008
:1002C000A1F17F014FEA0040140401D000F10100C8
:1002D00050EA124001D44000491EC2B20C0604EBA1
:1002E000D010401C4008802A02D003E0002010BD3E
:1002F00020F00100002900DA0020184310BD30B4BE
:1003000080EA010202F0004530F0004221F0004096
:1003100015D0A0B1C0F3C753C2F3C754C2F316013E
:10032000C0F31600E41A41F4000140F400027D34E9
:10033000914201D3641C00E04900002C02DA30BC79
:10034000002070474FF400000023914201D3891A26
:10035000034340084FEA4101F7D151B1914202D124
:100360004FF0004105E002D24FF0010101E06FF0D3
:10037000010103EBC450284430BC00F0DDBA2DE984
:10038000FE4F804681EA0300C00F0C46009021F02A
:10039000004123F00045B8EB0200A94105D24046D8
:1003A000214690461C460B46024623F0004010436F
:1003B00004D14046214603B0BDE8F08F270DC7F3B6
:1003C0000A00C3F30A510290401A0190402866DAED
:1003D000C3F3130040F4801B0098924620B1002321
:1003E000D2EB030A63EB0B0B01985946C0F14002B4
:1003F000504600F070FA06460D4650465946019A9E
:1004000000F088FA10EB08006141002487EA1152DD
:1004100084EAE7731A433BD0009A3AB3019A012A5F
:100420004FEA075210DC001B61EB02014FF0004263
:1004300002EA0752CDE90042001C41F58011324624
:100440002B4600F0BCFAB6E7001B61EB0201001C72
:1004500041F5801300185B412018A2F5001747EB07
:10046000030140EAD570B6196D4111E06D084FEAFD
:10047000360645EAC0754FEA0752001B61EB0201E0
:10048000001C41F5801149084FEA30000019514124
:1004900032462B4603B0BDE8F04F00F083BA009817
:1004A000012240000023D0EB020263EBE0730098CE
:1004B00021464FEAE074B8EB000061EB0401E9E784
:1004C00083F000435BE781F0004158E72DE9FE4FE0
:1004D00081EA030404F0004421F0004100944FF04D
:1004E000000B23F0004350EA010402D052EA030457
:1004F00004D10020014603B0BDE8F08FC3F30A54D5
:10050000C1F30A552C44A4F2F3340194A0FB025425
:10051000C1F3130141F48011C3F3130343F48013B7
:1005200001FB024400FB034E840A970A44EA81540B
:1005300047EA8357A4FB076802958D0A05FB0785E8
:100540004FEA932C04FB0C542705029D4FEA0658F2
:1005500047EA1637B5EB08056EEB070C870E920ECF
:1005600047EA811742EA8312A7FB0201B6EB0B01AF
:1005700064EB00042B0D43EA0C335E1844EB1C5073
:10058000DA465146E7FB0201C5F313044FEA0B3389
:1005900043EA14534FEA0432019C43EA0603A4F1F0
:1005A0000C040294009CCDE900B400F008FAA2E724
:1005B0002DE9F04D81EA030404F0004B21F00045E1
:1005C00014464FF0000A23F0004150EA050220D003
:1005D00054EA01021DD0C5F30A570246C5F31303BE
:1005E000C1F31300C1F30A5640F4801543F480139D
:1005F000A7EB0608101BD64608F2FD3873EB050082
:1006000002D308F1010801E092185B41B8F1000F34
:1006100003DA00200146BDE8F08D00204FF4801180
:10062000064684460EE0171B73EB050705D3121B25
:1006300063EB050306434CEA010C49084FEA30001E
:1006400092185B4150EA0107EDD152EA030012D043
:1006500082EA040083EA0501084303D100224FF037
:10066000004308E0101BAB4102D20122002302E04C
:100670006FF0010253101AEB06004CEB085110EB1F
:100680000A0041EB0B01BDE8F04D00F08BB9C10F42
:1006900080EAE0700844CA079623002100F055B9AB
:1006A00096230022114600F050B90EB5C10F80EA22
:1006B000E0700844CA07002140F233438DE80E0081
:1006C0000A460B4600F07BF903B000BD0EB540F2C0
:1006D000334102910021CDE900110A460B4600F09A
:1006E0006EF903B000BD00F0004220F00040C10DE3
:1006F000C0F3160040F400007F2901DA00207047A3
:10070000962903DCC1F19601C84001E09639884082
:10071000002AF4D04042704720F00040C10DC0F3E1
:10072000160040F400007F2901DA00207047962966
:1007300003DCC1F19601C840704796398840704784
:10074000C1F30A5210B5C1F3130140F2FF3341F473
:1007500080119A4201DA002010BD40F233439A42E0
:10076000A2F2334203DC524200F0C4F810BD9040C4
:1007700010BD00F0004230F000400AD0C10D01F57C
:100780006071C0F3160042EA0151C20840071143EC
:10079000704700200146704730B5002904DB4FF058
:1007A0000044404264EB0101002B04DB4FF00044A5
:1007B000524264EB03038B4208BF824230BD00000B
:1007C00030B5002904DB4FF00044404264EB0101E6
:1007D000002B04DB4FF00044524264EB03039942C8
:1007E00008BF904230BD000001F0004330B421F05A
:1007F000004150EA010206D00A0DA2F56072C1F371
:100800001301002A02DC30BC00207047440F44EA88
:10081000C104C100E01830BC00EBC25000F08CB83D
:10082000002801DBC0F10040002901DBC1F10041DB
:1008300081427047002801DBC0F10040002901DB44
:10084000C1F100418842704730B50B460146002097
:100850002022012409E021FA02F59D4205D303FA82
:1008600002F5491B04FA02F52844151EA2F1010203
:10087000F1DC30BD2DE9F05F0546002092469B4635
:1008800088460646814640241BE0284641464746A6
:10089000224600F02FF853465A46C01A914110D311
:1008A00011461846224600F016F82D1A67EB01088B
:1008B0004F4622460120002100F00DF817EB0009F9
:1008C0004E41201EA4F10104DFDC484631462A4691
:1008D0004346BDE8F09F202A04DB203A00FA02F1EB
:1008E000002070479140C2F1200320FA03F319431E
:1008F00090407047202A04DB203A21FA02F00021C0
:10090000704721FA02F3D040C2F12002914008431F
:1009100019467047202A06DBCB17203A41FA02F02D
:1009200043EAE07306E041FA02F3D040C2F120024C
:1009300091400843194670470029A8BF7047401CE2
:10094000490008BF20F00100704710B4B0FA80FCE5
:1009500000FA0CF050EA010404BF10BC704749B122
:10096000CCF1200421FA04F411FA0CF118BF012192
:1009700021430843A3EB0C01CB1D0106000A002B09
:10098000BEBF002010BC704700EBC35010440029CC
:10099000A4BF10BC7047401C490008BF20F00100F4
:1009A00010BC704710B5002B08DA401C41F1000163
:1009B00092185B411A4301D120F0010010BD2DE9CE
:1009C000F04D92469B4611B1B1FA81F202E0B0FAC5
:1009D00080F220329046FFF77EFF04460F4640EA41
:1009E0000A0041EA0B0153465A46084303D1204608
:1009F0003946BDE8F08D114653EA010015D0C8F123
:100A000040025046FFF776FF05460E4650465946CF
:100A10004246FFF760FF084301D0012000E00020BC
:100A2000054346EAE0762C4337430A984FEA44539D
:100A3000A0EB08004FEAD4240A304FF0000244EA49
:100A400047544FEAD72502D500200146D1E70105DA
:100A500010196941DDE9084500196941BDE8F04D0B
:100A6000A0E7C1F30A52C1F3130140F2FF3341F48E
:100A700080119A4202DA00200146704740F2334367
:100A80009A42A2F2334202DC5242FFF733BFFFF731
:100A900022BF0000064C074D06E0E06840F001036D
:100AA00094E8070098471034AC42F6D3FFF744FBB4
:100AB000FC6E00081C6F000821B1826842F0010240
:100AC000826003E0826822F001028260704721B1F7
:100AD000826842F48072826003E0826822F480724D
:100AE00082607047014600208A6812F0040F01D02E
:100AF000012000E000207047014600208A6812F0C3
:100B0000080F01D0012000E00020704730B50246F8
:100B10000020002350680F4C20400D790C6844EAF7
:100B200005242043506090680B4C2040D1E90254CA
:100B30002C434D7944EA450420439060D06A20F468
:100B400070000C7C641EE4B2234340EA0350D06280
:100B500030BD0000FFFEF0FFFDF7F1FFF0B50446E9
:100B60000D4600200021092D11DDE068A5F10A06DF
:100B700006EB4607072606FA07F18843A5F10A06A1
:100B800006EB460603FA06F10843E0600CE0206934
:100B900005EB4507072606FA07F1884305EB4506EE
:100BA00003FA06F108432061072A0FDA606B561E2C
:100BB00006EB86071F2606FA07F18843561E06EB4A
:100BC000860605FA06F10843606322E00D2A0FDA73
:100BD000206BD61F06EB86071F2606FA07F188430F
:100BE000D61F06EB860605FA06F10843206310E0DF
:100BF000E06AA2F10D0606EB86071F2606FA07F14A
:100C00008843A2F10D0606EB860605FA06F10843B5
:100C1000E062F0BD816841F008018160704721B158
:100C2000826842F4A002826003E0826822F4A0029B
:100C300082607047816841F0040181607047000064
:100C400000B591B000F0D6FF334800F025FB3348E3
:100C5000019033480290002003900120049000206E
:100C6000059006904FF48070079080000890202037
:100C7000099000020A9000200B9001A9264800F07C
:100C8000B5FB0121244800F0FBFA00200C908DF800
:100C9000340001208DF835004FF460200E900020C4
:100CA0000F9001208DF840000CA91C484C38FFF72C
:100CB0002DFF4FF4404001F053FE05230122114661
:100CC00016484C38FFF74AFF012114484C38FFF70B
:100CD000FEFE012111484C38FFF7EEFE0F484C385C
:100CE000FFF798FF00BF0D484C38FFF705FF0028BD
:100CF000F9D10A484C38FFF79DFF00BF07484C3830
:100D0000FFF7F0FE0028F9D1012104484C38FFF725
:100D100086FF11B000BD0000080002404C240140D5
:100D20009A0000202DE9F04104460D461646FF2C9E
:100D300003D90CA005F048F8FF240F2D03D90EA00D
:100D400005F042F80F250F2E03D910A005F03CF84E
:100D50000F26200400EB053000EB06273846BDE8DF
:100D6000F0810000626C6F636B206D6178203A3215
:100D70003536212100000000736563746F72206DA9
:100D80006178203A313621210000000070616765EA
:100D9000206D6178203A31362121000010B5012004
:100DA00001F03AFE002001F037FE10BD08B5014603
:100DB000002000900348009000980844009000989C
:100DC000008808BD006C00400149086070470000C1
:100DD00000860D4208B500220092044A0092009A53
:100DE00002440092009A116008BD0000006C0040AF
:100DF00010B503E003A004F0E7FF00E0FAE700BF4E
:100E000010BD00000D0A5761726E6E696E67212178
:100E1000204275734661756C74204F63637572650B
:100E2000640D0A00F0B505460E464FF6FF7418E053
:100E3000287802F061F884EA002400270EE014F418
:100E4000004F05D048F2050080EA440084B203E078
:100E50004FF6FF7000EA4404781CC7B2082FEEDB9F
:100E60006D1C3000A6F101018EB2E1D1204602F0E6
:100E700053F8F0BD2DE9F04385B004460020019001
:100E8000029003900490814600250026FFF79CFF06
:100E90000220874B002201460090104600F03AFCE9
:100EA00083483E3890F83F1090F83E0001EB002058
:100EB00085B2002D04DDB5F5B46F01DC258001E0BD
:100EC0003C20208021887BA004F07EFF0220784B0C
:100ED0009B1C002203210090104600F01BFC74486C
:100EE0003E3890F8411090F8400001EB002085B2A8
:100EF000002D04DDB5F5B46F01DC658001E03C2018
:100F00006080618877A004F05FFF0420684B083B95
:100F1000002207210090104600F0FCFB64483E3898
:100F2000D0F836603046FFF724FC0746002213460F
:100F3000FFF746FC0FD23046FFF71BFC07460022A6
:100F4000744BFFF729FC06D259483E38D0F83600DA
:100F5000C4F8370002E07048C4F83700D4F837000E
:100F6000FFF707FC07463A460B466CA004F02CFF3F
:100F700002204F4B1B1D002208210090104600F05C
:100F8000C9FB4B483E3890F8431090F8420001EB03
:100F9000002085B2002D04DBB5F5B46F01DCA5801F
:100FA00001E00020A080A18869A004F00DFF0120CD
:100FB0003F4B9B1D002209210090104600F0AAFB28
:100FC0003B483E3890F8445029466EA004F0FCFEA1
:100FD0000120374BDB1D00220A210090104600F053
:100FE00099FB33483E3890F84550002D03DD0A2D1B
:100FF00001DCE57101E00320E071E1796DA004F00E
:10100000E3FE04202A4B1B1F00220B2100901046F8
:1010100000F080FB26483E38D0F83A603046FFF7B3
:10102000A8FB074600221346FFF7CAFB13D230463F
:10103000FFF79FFB074600226A4BFFF7ADFB0AD282
:101040001B483E38D0F836103046FFF7F3FB02D28B
:10105000C4F83B6002E06448C4F83B00D4F83B00AD
:10106000FFF787FB07463A460B4660A004F0ACFE4C
:1010700001200F4B083300220C210090104600F095
:1010800049FB0B483E3890F846506572617A64A07F
:1010900004F09AFE00F0C0FA2072074639466CA0B0
:1010A00004F092FE0020207405B0BDE8F08300003B
:1010B000210100200D0A2A2A2A2A2A2A2A2A2A2A33
:1010C0002A2A2A2AB2C9BCAFD6DCC6DA2D2D3E3E6A
:1010D000202564202A2A2A2A2A2A2A2A2A2A2A0D6C
:1010E0000A0000000D0A2A2A2A2A2A2A2A2A2A2A3B
:1010F0002A2A2A2AC9CFB1A8D6DCC6DA2D2D3E3E2F
:10110000202564202A2A2A2A2A2A2A2A2A2A2A2028
:101110000D0A0000000039400000C8410D0A2A2ACB
:101120002A2A2A2A2A2A2A2A2A2A2A2AB5CDB1A8EC
:10113000BEAFC5A8B6C82D2D3E3E2025302E326646
:10114000202A2A2A2A2A2A2A2A2A2A2A2A0D0A0070
:101150000D0A2A2A2A2A2A2A2A2A2A2A2A2A2A2A2C
:10116000BFAACABCB2C9BCAFCAB1BCE42D2D3E3EB9
:10117000202564202A2A2A2A2A2A2A2A2A2A2A0DCB
:101180000A0000000D0A2A2A2A2A2A2A2A2A2A2A9A
:101190002A2A2A2AD2D1B2C9BCAFCAFDC1BF2D2D7D
:1011A0003E3E202564202A2A2A2A2A2A2A2A2A2A56
:1011B0002A0D0A000D0A2A2A2A2A2A2A2A2A2A2A33
:1011C0002A2A2A2AD6D8B4ABB4CECAFD2D2D3E3E4B
:1011D000202564202A2A2A2A2A2A2A2A2A2A2A0D6B
:1011E0000A00000000004940000048420D0A2A2A77
:1011F0002A2A2A2A2A2A2A2A2A2A2A2AB8DFB1A807
:10120000BEAFC5A8B6C82D2D3E3E2025302E326675
:10121000202A2A2A2A2A2A2A2A2A2A2A0D0A0000C9
:101220000D0A2A2A2A2A2A2A2A2A2A2A2A2A2A2A5B
:10123000B9A4D7F7B4CECAFD2D2D3E3E202564209B
:101240002A2A2A2A2A2A2A2A2A2A2A0D0A000000B9
:101250000D0A2A2A2A2A2A2A2A2A2A2A2A2A2A2A2B
:10126000B5E7B3D8B5E7C1BF2D2D3E3E2025642597
:1012700025202A2A2A2A2A2A2A2A2A2A2A0D0A0044
:1012800021B1026842F00102026004E002684FF6F8
:10129000FE731A400260704701684FF6FE721140FB
:1012A00001600021016041608160C1604B4988425A
:1012B00008D14A490839496841F00F01474A083ABC
:1012C00051608AE045491431884208D143490839C0
:1012D000496841F0F001414A083A51607DE03F49D8
:1012E0002831884208D13D490839496841F4706184
:1012F0003A4A083A516070E038493C31884208D196
:1013000036490839496841F47041344A083A516015
:1013100063E032495031884208D130490839496880
:1013200041F470212D4A083A516056E02B4964314E
:10133000884208D129490839496841F47001274A8F
:10134000083A516049E025497831884208D123495B
:101350000839496841F07061204A083A51603CE020
:101360001F49884206D1011F096841F00F01021F81
:10137000116032E01A491431884208D11849091F16
:10138000096841F0F001164A121F116025E0144966
:101390002831884208D11249091F096841F4706157
:1013A0000F4A121F116018E00D493C31884208D1E4
:1013B0000B49091F096841F47041094A121F116065
:1013C0000BE007495031884207D10549091F0968D8
:1013D00041F47021024A121F116070470800024058
:1013E000080402400146486880B2704710B50022E8
:1013F000026847F6F0739A430C6A8B6823430C69C2
:1014000023434C6923438C692343CC6923434C6AAF
:1014100023438C6A23431A430260CB6843600B6802
:1014200083604B68C36010BD70B5002400250026A2
:101430004FF47A713548FEF7C2FE3548806834496A
:1014400008603448FFF7CEFFC0F5FA743048C06832
:10145000A04204DA2E488089201A86B205E02C4882
:10146000C068C0F5FA70204486B22948C46000689C
:101470003044401EB0F5FA7F06DA25480068304453
:10148000401E2349486006E0214800683044A0F22D
:10149000F5101F4948601E484068A0F58071F33977
:1014A00003D100201A49886004E019484068401CB4
:1014B0001749886046B316480568406814490968AA
:1014C00088420ADD002405E01348405D0F490855B5
:1014D000641C6D1CB442F7DB16E0002412E0B5F585
:1014E000F97F05DC0C48405D084908556D1C08E093
:1014F000A5F58070F33804D10748405D03490855CD
:101500000025641CB442EADB304670BDEC0B0020C1
:10151000DC0B00206C000240E80900202DE9F041BE
:1015200006460F4600250024A046184800780128EA
:1015300029D1FFF779FF0546002D0EDD00BF05E03C
:101540001348015D13A004F03FFC641CAC42F7DBC0
:101550003946304601F06CFC804600210F48FFF709
:101560008FFE4FF4FA710E48FEF729FE002007495E
:10157000087001210948FFF783FE012240F224414F
:10158000084804F01FF94046BDE8F0813000002013
:10159000EC0B002020252E32782000006C00024049
:1015A000E80900200044004008B5362005490870CD
:1015B00001200B46002201460090104600F0DAF8A8
:1015C00008BD00008900002008B50121112001F0AC
:1015D00003FA8020ADF8000004208DF8030069466E
:1015E000014800F01FFB08BD0010014008B50121B3
:1015F000112001F0F1F98020ADF8000010208DF8E5
:10160000030003208DF802006946024800F00AFB3F
:1016100008BD0000001001402DE9F84F4FF0000A0E
:101620000025AB46002400260027A0463448007859
:1016300078B90120334B002201460090104600F09B
:1016400069F83048007836280EDD36202D490870BC
:101650000AE001202B4B002201460090104600F0CA
:1016600089F800202649087005F0ECF81FFA80FA86
:1016700005F0A2F885B205F035F81FFA80FBC5F336
:101680000E062048067805F06FF884B28CB94FF446
:101690007A7005F0C5FA1C4800F0C0F819480078C7
:1016A00038B118480078401E1649087005F05CF8FB
:1016B00084B24FF47A7094FBF0F01249097800EB91
:1016C00001094846FEF7E3FF804610494046FEF711
:1016D000E0FD0F490090FEF712FE8146FFF71CF86F
:1016E000C7B208480078864207D00120054B002287
:1016F00001460090104600F03DF83846BDE8F88FEE
:101700002A0000208900002040420F000000C8424B
:10171000000058422DE9F04705460E4617461C4684
:10172000DDF820803A4631462846FFF7FBFA81462D
:1017300001F0CCFC01F05EFD0B4908604FF44870ED
:1017400000F06CF801F076FD084908600846006872
:101750000749884204D142464946204601F0FAFB37
:1017600001F0FEFDBDE8F08780000020840000202D
:101770001840EF002DE9F04705460E4617461C4677
:10178000DDF820803A4631462846FFF7CBFA8146FD
:1017900001F09CFC01F02EFD0E4908604FF44870EA
:1017A00000F03CF801F046FD0B490860084600686F
:1017B0000A4988420AD1484601F066FD4246494638
:1017C000204601F0F1FBC82000F028F801F0C8FD28
:1017D000BDE8F08780000020840000201840EF0062
:1017E00010B502A004F0F0FA10BD00000D0A576118
:1017F000726E6E696E672121204465627567204DA7
:101800006F6E69746F7220657863657074696F6E4E
:10181000204F6363757265640D0A000001B50C49C1
:10182000009808604FF0E020006940F001004FF0A0
:10183000E021086100BF064800680028FBD14FF096
:10184000E020006920F001004FF0E021086108BDB0
:101850004400002010B586B000242DA103C9CDE9B5
:10186000040101F0FFF904462BA004F0ADFA36A004
:1018700004F0AAFA40A004F0A7FA4AA004F0A4FADF
:101880009DF815009DF814109DF81320CDE9002156
:1018900002909DF812309DF811209DF810104DA077
:1018A00004F092FA102159A004F08EFA202163A0CE
:1018B00004F08AFA6F49204602F062FF6D48007812
:1018C0006D4988726B480079C8726A48007A08735B
:1018D0006848007B48736748007C88736548007DD2
:1018E000A0F5FA60C8736348006862494968614AB4
:1018F0009268CDE9002102905E48C368026941699F
:101900005E4804F061FA5E48FFF788FF06B010BD3C
:1019100031201608310400000D0A2A2A2A2A2A2A10
:101920002A2A2A20B1B1BEA9BABDCCECBFC6C8F0E4
:10193000B5E7D7D3D3D0CFDEB9ABCBBE202A2A2A86
:101940002A2A2A2A2A2A00000D0A2A2A2A2A2A2A88
:101950002A2A2A2A2A2A2A20C8BCC6F8D6C7C4DCC2
:10196000BCE0B2E2D6D5B6CB202A2A2A2A2A2A2AD5
:101970002A2A2A2A000000000D0A2A2A2A2A2A2AAC
:101980002A2A2A2A2A2A2A204249524D4D2D5254C7
:1019900055313030202A2A2A2A2A2A2A2A2A2A2A73
:1019A000000000000D0A2A2A2A2A2A2A2A2A2A2A7C
:1019B0002A2A2A2A20D3B2BCFEC0E0D0CD3A203455
:1019C0003333B0E6B1BE202A2A2A2A2A2A2A2A2A12
:1019D0002A0000000D0A2A2A2A2A2A2A2A2A2A2A22
:1019E0002A2A2A2A20C9E8B1B84944BAC53A20258A
:1019F00078202578202578202578202578202578BE
:101A00002A2A2A2A2A2A2A2A2A2A00000D0A2A2AC7
:101A10002A2A2A2A2A2A2A2A2A2A2A2A20B5B1C781
:101A2000B0D3B2BCFEB0E6B1BEBAC53A202578202C
:101A30002A2A2A2A2A2A2A2A2A2A2A000D0A2A2A6D
:101A40002A2A2A2A2A2A2A2A2A2A2A2A20B5B1C751
:101A5000B0C8EDBCFEB0E6B1BEBAC53A20257820CC
:101A60002A2A2A2A2A2A2A2A2A2A2A2A2A2A0D0A13
:101A70000D0A00006C070020A4000020F86D00088B
:101A8000C0C62D002DE9FC5F05460E464FF0000A4A
:101A9000D146CB46002001900A2E03DD2E4804F0EB
:101AA00093F956E0032E04DA2B48443004F08CF905
:101AB0004FE0D5F800A0D5F80090002410E055F8CC
:101AC00024105046FEF7ACFE01D255F824A055F87C
:101AD00024104846FEF7AEFE01D255F82490641C4F
:101AE000B442ECDB49465046FEF7CDFB0090FEF7D2
:101AF00040FE07460022194BFEF762FE15D2012474
:101B000006E055F824105846FEF76BFB8346641C2C
:101B1000701EA042F5DCB01EFEF7B9FD074639463F
:101B20005846FEF7ECFB019013E0002406E055F860
:101B300024105846FEF755FB8346641CB442F6DB7E
:101B40003046FEF7A4FD074639465846FEF7D7FB58
:101B500001900198BDE8FC9F746E000800002040D1
:101B60002DE9F04306460F463546BC4600210024C9
:101B70008846002A01DB002B02DA0020BDE8F08352
:101B80009A4201DA0020F9E79A4212D112B90BB950
:101B90000020F3E7002108E0685C1CF8019048454C
:101BA00001D00020EAE7481C01B29142F4DB28464C
:101BB000E4E70BB90020E1E7D01A401C0FFA80F8E7
:101BC000002113E0002408E00819285C1CF80490A8
:101BD000484500D003E0601C04B29C42F4DB00BF27
:101BE0009C4201D16818C9E7481C01B24145E9DBB4
:101BF0000020C3E708B50121084600F0BDFE012121
:101C00004FF4017000F0E8FE0220ADF80000002063
:101C10008DF803006946024800F004F808BD000092
:101C2000000C01402DE9F04102460025002600206D
:101C300000230024002791F803C00CF00F0591F851
:101C400003C01CF0100F03D091F802C04CEA050548
:101C500091F800C0BCF1000F31D0146800202BE0D7
:101C60004FF0010C0CFA00F3B1F800C00CEA0306C7
:101C70009E4220D183004FF00F0C0CFA03F7BC43B7
:101C800005FA03FC4CEA040491F803C0BCF1280FE8
:101C900006D14FF0010C0CFA00FCC2F814C00AE0A7
:101CA00091F803C0BCF1480F05D14FF0010C0CFABC
:101CB00000FCC2F810C0401C0828D1D31460B1F851
:101CC00000C0BCF1FF0F34DD546800202EE000F1AD
:101CD000080C4FF0010808FA0CF3B1F800C00CEA48
:101CE00003069E4221D183004FF00F0C0CFA03F73C
:101CF000BC4305FA03FC4CEA040491F803C0BCF1B0
:101D0000280F05D100F1080C08FA0CF8C2F814806D
:101D100091F803C0BCF1480F07D100F1080C4FF057
:101D2000010808FA0CF8C2F81080401C0828CED32D
:101D30005460BDE8F0810246002093680B4201D058
:101D4000012000E000207047416170470161704749
:101D500030B587B01EA30FCB03AC0FC420A103C9BD
:101D6000CDE90101002400250D2103A804F0C4FEE3
:101D70001D48FFF753FD1D480078012804D1FFF7E7
:101D800053FB00201949087008234FF4967201A9EB
:101D90001748FFF7E5FE04467CB1164884420CD292
:101DA000257A00244FF496711148FEF708FA0020B6
:101DB00011490880284607B030BD4FF496710C4891
:101DC000FEF7FDF900200C490880FF20F3E7000032
:101DD000AFAF0000AF8016020000A50D0A000000A2
:101DE000AFAF0000AF001602C0C62D0030000020CB
:101DF000EC0B00200C0D00204800002030B587B00F
:101E00001EA30FCB03AC0FC420A103C9CDE9010170
:101E1000002400250D2103A804F06EFE1D48FFF7E5
:101E2000FDFC1D480078012804D1FFF7FDFA0020D1
:101E30001949087008234FF4967201A91748FFF753
:101E40008FFE04467CB1164884420CD2257A0024C9
:101E50004FF496711148FEF7B2F90020114908803D
:101E6000284607B030BD4FF496710C48FEF7A7F92D
:101E700000200C490880FF20F3E70000AFAF00000E
:101E8000AF801A020000A90D0A000000AFAF0000E9
:101E9000AF001A0240420F0030000020EC0B00207F
:101EA0000C0D00204800002030B587B01EA30FCBDA
:101EB00003AC0FC420A103C9CDE901010024002512
:101EC0000D2103A804F018FE1D48FFF7A7FC1D48CC
:101ED0000078012804D1FFF7A7FA002019490870FB
:101EE00008234FF4967201A91748FFF739FE0446FC
:101EF0007CB1164884420CD2257A00244FF49671A6
:101F00001148FEF75CF9002011490880284607B007
:101F100030BD4FF496710C48FEF751F900200C4982
:101F20000880FF20F3E70000AFAF0000AF801C0285
:101F30000000AB0D0A000000AFAF0000AF001C02B4
:101F4000C0C62D0030000020EC0B00200C0D00203E
:101F5000480000202DE9F04F87B030A30FCB03AC31
:101F60000FC432A003C8CDE901014FF0000AD346E7
:101F7000002000900E2103A804F0BEFD2D48FFF7BD
:101F80004DFC2D480078012804D1FFF74DFA0020C0
:101F90002949087008234FF4967201A92748FFF7D2
:101FA000DFFD8246BAF1000F2DD0254882452AD2A6
:101FB0009AF8080000049AF8091000EB01209AF83A
:101FC0000A10084400900098FEF780FB80461D4AE6
:101FD0001D4BFEF77BFA064600221C4BFEF7E8FA83
:101FE0000446FEF7ADFB1FFA80FB4FF0000A4FF4EA
:101FF00096711248FEF7E3F800201549088058460C
:1020000007B0BDE8F08F4FF496710C48FEF7D7F893
:1020100000200F4908804FF6FF70F1E7AFAF0000D6
:10202000AF800C030000009C0D0A0000AFAF000061
:10203000AF000C03C0C62D0030000020EC0B0020C8
:10204000090D002014AE47E17A844E4080842E4171
:102050004800002030B587B01EA30FCB03AC0FC4DF
:1020600020A103C9CDE90101002400250D2103A809
:1020700004F042FD1D48FFF7D1FB1D480078012800
:1020800004D1FFF7D1F900201949087008234FF453
:10209000967201A91748FFF763FD04467CB1164804
:1020A00084420CD2257A00244FF496711148FEF731
:1020B00086F8002011490880284607B030BD4FF44B
:1020C00096710C48FEF77BF800200C490880FF2031
:1020D000F3E70000AFAF0000AF80100200009F0DDB
:1020E0000A000000AFAF0000AF001002C0C62D0014
:1020F00030000020EC0B00200A0D002048000020DA
:1021000030B587B01EA30FCB03AC0FC420A103C909
:10211000CDE90101002400250D2103A804F0ECFC09
:102120001D48FFF77BFB1D480078012804D1FFF70D
:102130007BF900201949087008234FF4967201A911
:102140001748FFF70DFD04467CB1164884420CD2B7
:10215000257A00244FF496711148FEF730F80020DC
:1021600011490880284607B030BD4FF496710C48DD
:10217000FEF725F800200C490880FF20F3E7000057
:10218000AFAF0000AF800E0200009D0D0A000000FE
:10219000AFAF0000AF000E02C0C62D00300000201F
:1021A000EC0B00200A0D00204800002030B587B05D
:1021B00020A30FCB03AC0FC422A103C9CDE90101B9
:1021C000002400250D2103A804F096FC1F48FFF70A
:1021D00025FB1F480078012804D1FFF725F90020CE
:1021E0001B49087008234FF4967201A91948FFF79C
:1021F000B7FC04469CB11848844210D2617A207A18
:1022000001EB002085B200244FF496711148FDF7D0
:10221000D6FF002011490880284607B030BD4FF492
:1022200096710C48FDF7CBFF00200C4908804FF653
:10223000FF70F2E7AFAF0000AF8014020000A30D03
:102240000A000000AFAF0000AF001402C0C62D00AE
:1022500030000020EC0B00200C0D00204800002076
:1022600030B587B01EA30FCB03AC0FC420A103C9A8
:10227000CDE90101002400250D2103A804F03CFC58
:102280001D48FFF7CBFA1D480078012804D1FFF75D
:10229000CBF800201949087008234FF4967201A961
:1022A0001748FFF75DFC04467CB1164884420CD207
:1022B000257A00244FF496711148FDF780FF002025
:1022C00011490880284607B030BD4FF496710C487C
:1022D000FDF775FF00200C490880FF20F3E70000A0
:1022E000AFAF0000AF8018020000A70D0A00000089
:1022F000AFAF0000AF001802C0C62D0030000020B4
:10230000EC0B00200C0D00204800002070B500F000
:10231000A9FC0546FDF732FFFDF726FF4FF47A7161
:1023200090FBF1F201FB1204204670BDF0B58DB0B8
:102330000446342221496846FDF728FF6069451E9E
:10234000642195FBF1F12846EA1705EB9272C1EB87
:10235000A2014FF4C87295FBF2F28F186069C117A1
:1023600000EB91718910B0EB810112D16422616997
:1023700091FBF2F302FB131131B99200616991FBF9
:10238000F2F302FB131121B92169022901DD0126B3
:1023900000E0002640F26D1005FB00712069401E30
:1023A0005DF820000844E16808440644072096FBD5
:1023B000F0F100FB1160A0610DB0F0BD406E0008AF
:1023C00010B503E003A003F0FFFC00E0FAE700BF54
:1023D00010BD00000D0A5761726E6E696E67212193
:1023E0002048617264204661756C74204F63637588
:1023F0007265640D0A00000010B503E003A003F04D
:10240000E3FC00E0FAE700BF10BD00000D0A5761D1
:10241000726E6E696E672121204D656D4D616E6132
:102420006765204F6363757265640D0A00000000E4
:1024300010B502A003F0C8FC10BD00000D0A5761E2
:10244000726E6E696E672121204E4D49204F636385
:10245000757265640D0A000070B5002100230F221B
:10246000C4780CB3164C246804F4E064C4F5E0644A
:10247000210AC1F10403CA40447804FA03F18478C4
:102480001440214309010F4C0678A155047804F04B
:102490001F050124AC4005786D114FF0E02606EBD6
:1024A0008505C5F8004109E0047804F01F05012402
:1024B000AC40054D0678761145F8264070BD000009
:1024C0000CED00E000E400E080E100E0024901439F
:1024D000024A1160704700000000FA050CED00E0B0
:1024E000014908627047000000000E420A48006877
:1024F00040F00400084908600846006840F0020007
:1025000008600648006840F004000449086000BF05
:1025100000BF30BF704700000070004010ED00E0C9
:102520000149086070470000A0000E422DE9F04309
:1025300085B0074600200390049080468146002520
:1025400000240026A2A207CA8DE80700386803907D
:1025500038798DF810009DF80C809DF80D909DF84D
:102560000E50FFF723FE044620128DF80000E0B263
:102570008DF801008DF807808DF808909748FFF7D7
:102580004DF9B8F1000F73D1A9F10900132870D2E9
:10259000DFE800F00A6F0B6F326F506F706F716F72
:1025A0009E6FBC6FDA6FF9000CE1022D23D19DF80C
:1025B00010009DF80F1000EB012084B202208DF86E
:1025C000090020128DF80A00E0B28DF80B000C21F2
:1025D000684604F091FA8248FFF720F90C2168461A
:1025E00004F08AFA7F48FFF719F9204601F074FBDE
:1025F000FFF7B0FC0446E5E0012D1AD19DF80F600D
:1026000001208DF809008DF80A600B21684604F05E
:1026100073FA7348FFF702F90B21684604F06CFA6D
:102620007048FFF7FBF8304601F022FCFFF768FD29
:102630000646C7E0012D1AD19DF80F6001208DF8E4
:1026400009008DF80A600B21684604F055FA6448C9
:10265000FFF7E4F80B21684604F04EFA6148FFF7F3
:10266000DDF8304601F0B4FBFFF7F4FC0646A9E0C4
:10267000A9E0A6E0A6E0022D29D19DF810009DF862
:102680000F1000EB012084B220128DF80000E0B2A0
:102690008DF8010002208DF8090020128DF80A0043
:1026A000E0B28DF80B000C21684604F025FA4C4886
:1026B000FFF7B4F80C21684604F01EFA4948FFF70A
:1026C000ADF8204601F024FCFFF770FD044679E0E8
:1026D000012D1AD19DF80F6001208DF809008DF8A9
:1026E0000A600B21684604F007FA3D48FFF796F8A8
:1026F0000B21684604F000FA3A48FFF78FF830469D
:1027000001F05AFCFFF724FB06465BE0012D1AD1CD
:102710009DF80F6001208DF809008DF80A600B21EB
:10272000684604F0E9F92E48FFF778F80B2168466F
:1027300004F0E2F92B48FFF771F8304601F08CFC09
:10274000FFF78EFD06463DE0012D1AD19DF80F6082
:1027500001208DF809008DF80A600B21684604F00D
:10276000CBF91F48FFF75AF80B21684604F0C4F96B
:102770001C48FFF753F8304601F00EFAFFF73EFB16
:1027800006461FE0FFE7012D1AD19DF80F600120DA
:102790008DF809008DF80A600B21684604F0ACF949
:1027A0000F48FFF73BF80B21684604F0A5F90D48E8
:1027B000FFF734F8304601F03FFAFFF775FB0646A5
:1027C00000E000BF00E000BF05B0BDE8F0830000FE
:1027D000AAAAAFFFAFEE00AAAAAAAAAAC0C62D0055
:1027E00080841E0040420F007047000010B502A018
:1027F00003F0EAFA10BD00000D0A5761726E6E69AF
:102800006E6721212050656E6453564320657863BE
:10281000657074696F6E204F6363757265640D0A2D
:102820000000000010B54FF4C0725F217F2003F05C
:1028300073FA02F0A1FD02F049FE02F0F1FE02F08F
:102840004BFD02F08DFE00F034FA1E4800F0A4F9B2
:1028500001F0A0FD00F05AF8FEF7F2F980211A48C5
:10286000FFF774FA4FF480711748FFF76FFA00F022
:10287000F9F9164908601648FEF7D0FFFEF7EAFF9F
:1028800014480078012807D113A003F09DFA01F045
:10289000A5FC00200F4908701748FEF7EBFA20212D
:1028A0001648FFF753FA1648FEF7B8FF01211548FE
:1028B000FFF74AFA1248FEF7B1FF4021124802F032
:1028C0004AFF10BD6C070020000801403C000020BA
:1028D00020A107002A0000200D0AB5F4B5E7D6D8DC
:1028E000C6F4A3ACD6D8D0C2B3F5CABCBBAFBFE266
:1028F000C2D8BCC60D0A0000A40000200010014090
:10290000A0860100000C01400044004008B50121F0
:102910001C2000F061F80120ADF8000028208DF89F
:10292000030069460B48FFF77DF90120ADF8000070
:1029300010208DF8030069460748FFF773F920203F
:10294000ADF8000010208DF8030069460348FFF73A
:1029500069F908BD00080140000C01400010014069
:1029600001460020034A506820F44040084350606C
:10297000704700000010024029B1064A5269024324
:10298000044B5A6104E0034A52698243014B5A6185
:10299000704700000010024029B1064AD269024384
:1029A000044BDA6104E0034AD2698243014BDA61E5
:1029B000704700000010024029B1064A1269024324
:1029C000044B1A6104E0034A12698243014B1A6105
:1029D000704700000010024029B1064A9269024384
:1029E000044B9A6104E0034A92698243014B9A6165
:1029F000704700000010024029B1064AD268024325
:102A0000044BDA6004E0034AD2688243014BDA6087
:102A10007047000000100240014908607047000044
:102A2000400442420348406A40F0807001494862D5
:102A3000704700000010024030B500210022002441
:102A400000232D4D6D6805F00C0121B1042905D03E
:102A5000082923D105E0294D056022E0274D0560B6
:102A60001FE0254D6D6805F47012234D6D6805F467
:102A70008034022505EB92421CB9214D5543056077
:102A80000BE01D4D6D6815F4003F03D01C4D554300
:102A9000056002E0194D5543056002E0174D0560E1
:102AA00000BF00BF144D6D6805F0F0010909154D18
:102AB0006B5C0568DD4045600F4D6D6805F4E061B5
:102AC000090A104D6B5C4568DD4085600A4D6D68F4
:102AD00005F46051C90A0B4D6B5C4568DD40C5606B
:102AE000054D6D6805F44041890B074D6B5CC56869
:102AF000B5FBF3F5056130BD0010024000127A000D
:102B000000093D00140000202400002010B50146FB
:102B10000022002300204A11012A02D1094C236817
:102B200006E0022A02D1074C236A01E0054C636AE1
:102B300001F01F02012494401C4201D0012000E05A
:102B4000002010BD0010024000210A4A11700A4AFC
:102B500082F82010012802D0042808D103E00121C6
:102B6000044A117004E00521024A117000E000BF20
:102B700000BF704720100240001002400149086069
:102B8000704700003C0442420249096A0143014A7D
:102B9000116270470010024010B504460420FEF791
:102BA00005F9A0F52541A53907D000F021F84AF232
:102BB000A5510420FEF70EF90CE07B20FFF7A6FFDD
:102BC00018B101200549087002E07A20FFF79EFF46
:102BD00000F0BAF8FFF726FF10BD00002A00002021
:102BE000024909888143014A118070470428004046
:102BF00010B501214FF0C050FFF7CEFE0120FFF7C6
:102C00006FFCFEF7CBF80120FFF79EFF00BF4120CD
:102C1000FFF77CFF0028FAD04FF48070FFF7B4FF75
:102C20000120FFF7ABFF00F08FF800F083F847F6C4
:102C3000FF7000F06FF800F07DF810BD03480088C9
:102C400040F010000149088070470000042800404F
:102C5000034800884FF6EF7108400149088070472B
:102C600004280040002103480188001F008841EA31
:102C7000004070471C28004001460020064A128888
:102C80000A40D0B2044A121F12880A4202D008B188
:102C9000012000E0002070470428004010B501200A
:102CA000FFF7EAFF20B10120FFF79AFF00F042F89A
:102CB00010BD08B54FF4A060FFF708FC03208DF8A5
:102CC000000002208DF801008DF8020001208DF82F
:102CD00003006846FFF7C0FB08BD000000B50246D0
:102CE000FFF7ACFF100C03490880091D0A80FFF7AD
:102CF000AFFF00BD2028004000B50246FFF79EFF51
:102D0000100C03490880091D0A80FFF7A1FF00BDD0
:102D10001828004000B50246FFF790FFC2F30340B9
:102D200003490880091D0A80FFF792FF00BD0000DB
:102D30000828004000BF0348008810F0200FFAD098
:102D40007047000004280040064800884FF6F771DD
:102D500008400449088000BF0248008810F0080FAE
:102D6000FAD07047042800402DE9F14F84B0049850
:102D7000FDF796FC4FF08B410190FDF7C0FA8346BA
:102D8000FDF7F7FC06464FF06632234BFDF79EFB3E
:102D90008146FDF729FD039020490398FDF779FA54
:102DA000054600212846FDF73BFD01D2002509E03C
:102DB0002846FDF7DEFC06460022194BFDF700FD14
:102DC00000D2184D2846FDF78EFC04462046FDF73C
:102DD0005EFC06462946FDF759FA02901249029810
:102DE000FDF757FA02900298FDF77DFC0646FDF7C5
:102DF0004EFC80460D494046FDF712FD04D22046A8
:102E0000FDF745FC054603E0601CFDF740FC054668
:102E1000284605B0BDE8F08F66660A4000002042F3
:102E2000000059400000C842000020410000A040BE
:102E30002DE9FE4305460E460020029000241FA007
:102E4000006801901EA0006800900027A046A146DF
:102E500004234FF4967269461A48FEF781FE044631
:102E6000ACB11948844212D218A002F0ADFF20790B
:102E700018B9601DFFF75AFB05E02079012802D13F
:102E80006079FFF7B1FC00240020BDE8FE83022337
:102E90004FF4967201A90B48FEF762FE04465CB13E
:102EA0000948844208D233462A4602A9204601F046
:102EB0007DFCBDF80800E8E70020E6E7A32000005D
:102EC000A3A3A3A3EC0B00200E0D00200D0A526556
:102ED00063656976652034333320436F6E666967B6
:102EE00020436F6D6D616E642066726F6D2053724A
:102EF00076696573210D0A00014601F00100002288
:102F000007E04306180E491001F001031843531C53
:102F1000DAB2072AF5DB7047014601F00100002212
:102F200009E04FF6FF7303EA4000491001F0010386
:102F30001843531CDAB20F2AF3DB704721B1028821
:102F400042F04002028004E002884FF6BF731A404C
:102F50000280704770B505460C4616464FF4805106
:102F60001048FEF7F1FE032000F0B2F9C4F3074069
:102F700000F0AEF9C4F3072000F0AAF9E0B200F0C7
:102F8000A7F904E0FF2000F0A3F928706D1C3000C1
:102F9000A6F101018EB2F5D14FF480510148FEF740
:102FA000D5FE70BD000C01402DE9F05F07460E46CE
:102FB00014464FF00008C146C2460025AB4606F055
:102FC000FF0ACAF10000C5B22046E11704EB116107
:102FD000C1F30728E11704EB11610912A4EB0121E9
:102FE00001F0FF09BAF1000F20D1B8F1000F05D1AF
:102FF00022463146384600F0CBF864E009E04FF451
:1030000080723146384600F0C3F806F5807607F541
:1030100080775FEA0800A8F1010101F0FF08EED116
:103020004A463146384600F0B3F84CE0B8F1000F9C
:1030300018D1A94510DDA9EB050000F0FF0B2A46C9
:103040003146384600F0A4F82E442F445A46314603
:10305000384600F09DF836E022463146384600F00A
:1030600097F830E0601B84B22046E11704EB116151
:10307000C1F30728E11704EB11610912A4EB012148
:1030800001F0FF092A463146384600F081F82E4407
:103090002F4409E04FF480723146384600F078F84A
:1030A00006F5807607F580775FEA0800A8F1010150
:1030B00001F0FF08EED1B9F1000F04D04A463146C5
:1030C000384600F065F8BDE8F09F000000B587B015
:1030D00001210820FFF780FC01218803FFF75CFC39
:1030E0004FF40050ADF8040003208DF806001820BE
:1030F0008DF8070001A92448FEF794FD4FF48040A5
:10310000ADF8040001A92048FEF78CFD4FF4004003
:10311000ADF8040001A91C48FEF784FD4FF480506F
:10312000ADF8040010208DF8070001A91648FEF73D
:1031300079FD4FF480511448FEF708FE0020ADF8E9
:1031400008004FF48270ADF80A000020ADF80C00C2
:103150000220ADF80E000120ADF810004002ADF8DD
:1031600012000820ADF814000020ADF8160007206A
:10317000ADF8180002A9054800F012F90121034832
:10318000FFF7DCFE07B000BD000C01400038004036
:1031900070B505460C46164600F0D0F84FF4805145
:1031A0001348FEF7D1FD022000F092F8C4F3074067
:1031B00000F08EF8C4F3072000F08AF8E0B200F0C7
:1031C00087F8B6F5807F01DD4FF4807603E028783C
:1031D00000F07EF86D1C3000A6F101018EB2F6D130
:1031E0004FF480510248FEF7B1FD00F08DF870BD3C
:1031F000000C014010B500244FF480510C48FEF73C
:10320000A3FDAB2000F064F8FF2000F061F8FF2080
:1032100000F05EF8FF2000F05BF8FF2000F058F8A7
:1032200004464FF480510248FEF790FD204610BD41
:10323000000C01402DE9F041002400250026002764
:103240004FF480510F48FEF77FFD9F2000F040F8BB
:10325000FF2000F03DF80546FF2000F039F8064653
:10326000FF2000F035F807464FF480510548FEF77F
:103270006DFD280440EA062040EA07042046BDE828
:10328000F0810000000C014010B5044600F056F833
:1032900000F03AF84FF480510C48FEF755FD20201D
:1032A00000F016F8C4F3074000F012F8C4F307204A
:1032B00000F00EF8E0B200F00BF84FF48051034834
:1032C000FEF744FD00F020F810BD0000000C0140A6
:1032D00010B5044600BF02210A4800F053F8002848
:1032E000F9D02146074800F059F800BF01210548F0
:1032F00000F048F80028F9D0024800F04CF8C0B2BD
:1033000010BD00000038004010B500244FF480517B
:103310000948FEF719FD0520FFF7DAFF00BFFF207F
:10332000FFF7D6FF044614F0010FF8D14FF4805197
:103330000148FEF70BFD10BD000C014010B54FF425
:1033400080510648FEF700FD0620FFF7C1FF4FF44D
:1033500080510248FEF7FAFC10BD0000000C01404D
:1033600010B54FF480510648FEF7EEFCB920FFF788
:10337000AFFF4FF480510248FEF7E8FC10BD00009B
:10338000000C01400246002013890B4201D00120AD
:1033900000E00020704701468889704781817047AE
:1033A00010B50022028802F441520B884C88234356
:1033B0008C882343CC8823430C8923434C892343A3
:1033C0008C892343CC8923431A430280838B4FF299
:1033D000FF74234083830B8A038210BD10B502A0C3
:1033E00002F0F2FC10BD00000D0A5761726E6E69AA
:1033F0006E67212120535643616C6C2065786365AC
:103400007074696F6E204F6363757265640D0A0096
:103410002DE9FF4FADF5577D83461D46DDF89093AE
:103420000420D6900520D59011A81090D8980F9020
:1034300000200E900D9001200B904FF0000A002408
:10344000002600200A900590102004900C20039084
:103450000620029000270020019099F8051099F8A5
:10346000040001EB002080B20C9010980E9040F206
:103470000B310E98FCF7A3FEA3208DF8440020200A
:103480008DF8450000BF05E019F8041012A8015599
:10349000601CC4B2062CF7DB0C9803F05EFBADF8A1
:1034A0004F00802000EB0B21D698084480B2ADF885
:1034B0005100BDF8510003F050FBADF85100C04879
:1034C0000078012802D10220D49001E00120D4909C
:1034D000D4988DF84E0001208DF853000F98D0B18C
:1034E000D9980A90002412E004EB440202EB041382
:1034F000D89A02EB430104EB440202EB041315AA31
:1035000002EB43002622FCF741FE601CC4B20A987D
:103510008442E9DBB4E0ABF102000A287DD2DFE8A7
:1035200000F005AB06AB93AB9FABAB94A7E0A5480F
:1035300003F006FB1590012111A88182A248017AAF
:1035400011A88175A14803F0FBFACDF87A00032198
:1035500011A841879E48007DA0F5FA60C1B28DF8A0
:1035600080109B48017C8DF88110017B8DF88210C2
:1035700000245FE0072006AB0022611C00900120C0
:10358000FEF7C8F89DF819109DF8180001EB00200F
:1035900080B208908C480188089800EBC121D5982A
:1035A000C03001EB0061A01C00EB400202EB0012F6
:1035B00015A800EB42000160A11C01EB410202EBE7
:1035C000011215A901EB4201086803F0B9FAA11C28
:1035D00001EB410202EB011215A901EB4201086067
:1035E0000421A01C00EB400202EB001215A800EB26
:1035F0004200818000260EE0B01C06A9095CA01CD8
:1036000000EB400202EB001215A800EB4200801D07
:103610008155701CC6B2A01C00E02DE000EB4001FB
:1036200001EB001115A800EB41008088B042E3DCFB
:10363000601CC4B26748007884429BDB6548007810
:10364000801CC0B20A901AE019E0634803F078FACF
:103650001590012111A88182817501200A900EE048
:103660005848E03003F06CFA1590012111A88182CE
:10367000817501200A9002E000200A9000BF00BF7F
:1036800000240FE004EB440000EB041115A800EB4C
:1036900041000079801DC7B205983844C0B205903A
:1036A000601CC4B20A988442ECDB05980C30ADF87B
:1036B0004600BDF8460003F050FAADF8460010226F
:1036C00028460E99FCF762FD4FF6FF70ADF84C03EB
:1036D0000598103000F0FF081020019000242FE022
:1036E00004EB440000EB041115A800EB41000E9020
:1036F00004EB440000EB041115A800EB4100007935
:10370000801DC7B204EB440101EB041215A901EBC3
:103710004201888803F021FA04EB440101EB041212
:1037200015A901EB42018880019968183A460E9963
:10373000FCF72CFD01983844C0B20190601CC4B263
:103740000A988442CCDB41462846FDF76BFB824653
:10375000ADF84CA308F1010005F800A04FEA2A21BA
:10376000401C29541848C079002803DD1648C07948
:103770000B9001E001200B90002419E04A4608F16B
:10378000020128460C9B00F035F80D900D9818B1F9
:1037900012A002F019FB0EE0FEF7B8FD0990144AE2
:1037A0000223099903FB0120FEF738F8601CC4B21C
:1037B0000B988442E2DB00BF0DF55B7DBDE8F08F26
:1037C0007D00002020000060A400002050000010B8
:1037D0006C07002031000020000200600D0ACAFDC5
:1037E000BEDDB7A2CBCDB3C9B9A6210D0A0000003A
:1037F000404B4C002DE9F04706460C4617469846CC
:103800004FF00009002514A002F0DEFAFF2C00DDC5
:10381000FF24002504E0715D13A002F0D5FA6D1CB1
:10382000A542F8DB2146304603F066F90F48FDF764
:10383000F5FF0F480078012805D141463846FDF7CD
:103840006DFE814602E00B48FDF7E8FF0AA002F09A
:10385000BBFA4846BDE8F0870D0AB7A2CBCDCAFD3A
:10386000BEDD2E2E2E0D0A002578200080969800B1
:1038700030000020404B4C000D0AB7A2CBCDCDEA62
:10388000B1CF210D0A0000002DE9F04798B00446A1
:103890000E469146002016901790002586A002F053
:1038A00093FAFFF7DFF98A490860084600688949FA
:1038B0000968A0EB010A88A002F086FABAF1B40FF9
:1038C00008D2CAF1B4014FF47A72514301FB02F0FD
:1038D000FDF7A4FF002516E086480088FFF744FAAC
:1038E0000CA941F8250051F82500FCF742FF0746D6
:1038F0003A460B46294680A002F066FA8548FDF755
:103900008DFF681CC5B20A2DE6DB0A210CA8FEF764
:10391000B9F8C4F802008048C07A7F49097BC1EB3E
:10392000011100EB810020807C480078401CA071D0
:103930007848FDF773FFA079784908700846007849
:10394000774981F84400012001F144030022092154
:1039500000901046FDF70EFF714890F84600401C9D
:103960006F4981F84600012001F1460300220C2135
:1039700000901046FDF7FEFE208800128DF85800DA
:1039800020788DF85900002506E0A01C415DA81C98
:1039900016AA1154681CC5B2042DF6DBA0798DF867
:1039A0005E0007200090A17916AB00220120FDF7F0
:1039B000E1FEA1795BA002F007FA4FF48071624842
:1039C000FEF7C2F9544AD2F83B10D4F80200FCF7D3
:1039D00031FF07D9504AD2F83710D4F80200FCF76B
:1039E00029FF34D820884C49098800EBC120A0F178
:1039F0006C500290029803F0A3F802900420ADF8F6
:103A00000C00002506E0A01C415D0DF10E004155A3
:103A1000681CC5B2BDF80C00A842F4DC4BA002F053
:103A2000D3F9514B012202A904200096FFF7F0FCC4
:103A300049463046FDF772FD4C490870084600784B
:103A4000012801D10020087001204949087033483D
:103A5000007848490978884204DA2F49088802F03A
:103A60001DFF25E02D4800784249097888421FD182
:103A70004148FDF7D3FEFDF7CFFD274908723FA06F
:103A800002F0A2F9384B0022114604200096FFF7FD
:103A9000BFFC49463046FDF741FD344908700846F1
:103AA0000078012801D100200870012030490870F9
:103AB00018B0BDE8F08700000D0AB4ABB8D0C6F767
:103AC000BFAACABCB2C9BCAFCAFDBEDD0D0A0000A8
:103AD000400000203C0000200D0AB4ABB8D0C6F76F
:103AE000BDF8D0D031383053C9CFB5E7D4A4C8C859
:103AF0000D0A00009A0000200D0A4E4F3A2564205E
:103B0000B4ABB8D0C6F7CAFDBEDD3A2025302E32A0
:103B10006600000020A10700A40000203100002062
:103B2000E30000200D0AB2C9BCAFCAFDBEDDB4E699
:103B3000D4DA464C415348B5C4204E4F2E2564205C
:103B4000C9C8C7F8210D0A00000801400D0AB4AB2E
:103B5000B8D0C6F7BDF8D0D0B1A8BEAFD0C5CFA2FF
:103B6000C9CFB4AB0D0A0000400600202B00002096
:103B70002C0000202D000020A08601000D0AB4AB0F
:103B8000B8D0C6F7BDF8D0D0B2C9BCAFD0C5CFA2AF
:103B9000C9CFB4AB0D0A00002DE9FF4106461FA3B3
:103BA0000FCB8DE80F000024002500278DF808605A
:103BB00000BF05E01DF80500204484B2681CC5B2B2
:103BC0000A2DF7DB2046E11704EB11610912A4EB83
:103BD0000121C9B28DF80A100D21684602F08CFF50
:103BE000002516E01148FDF719FE1148007801285C
:103BF0000DD1FDF719FC87B2002F04DD4FF4FA71E7
:103C00000C48FCF7DCFA00200949087003E0681C46
:103C1000C5B20A2DE6DB00BFBDE8FF81AFAF0000F3
:103C2000AF801902FF00FF0D0A000000400D0300E5
:103C300030000020E80900202DE9FF4106461FA3BF
:103C40000FCB8DE80F000024002500278DF80860B9
:103C500000BF05E01DF80500204484B2681CC5B211
:103C60000A2DF7DB2046E11704EB11610912A4EBE2
:103C70000121C9B28DF80A100D21684602F03CFFFF
:103C8000002516E01148FDF7C9FD1148007801280C
:103C90000DD1FDF7C9FB87B2002F04DD4FF4FA7197
:103CA0000C48FCF78CFA00200949087003E0681CF6
:103CB000C5B20A2DE6DB00BFBDE8FF81AFAF000053
:103CC000AF801B02FF00FF0D0A000000400D030043
:103CD00030000020E80900202DE9F04F85B0834630
:103CE00031A30FCB01AC0FC4002400BF0020009013
:103CF00000BF31490BFB01F0FCF7D7FC07462F4A08
:103D00002F4BFCF755FC0546FCF71AFD82464FEA9F
:103D10001A408DF80C004FEA1A208DF80D000AF0B9
:103D2000FF008DF80E00A14608E001A810F8090078
:103D3000204484B209F1010000F0FF09B9F10B0F32
:103D4000F3DB2046E11704EB11610912A4EB01211A
:103D5000C9B28DF80F100E2101A802F0CDFE4FF070
:103D600000091AE01748FDF759FD174800780128A7
:103D70000FD1FDF759FB80B200900098002804DDB8
:103D80004FF4FA711148FCF71AFA00200E49087036
:103D900006E009F1010000F0FF09B9F10A0FE1DBCB
:103DA00000BF05B0BDE8F08FAFAF0000AF800B03E0
:103DB000FFFFFFFF0D0A000040420F0014AE47E175
:103DC0007A844E40400D030030000020E8090020B6
:103DD0002DE9FF4106461FA30FCB8DE80F000024FD
:103DE000002500278DF8086000BF05E01DF80500DC
:103DF000204484B2681CC5B20A2DF7DB2046E117C7
:103E000004EB11610912A4EB0121C9B28DF80A106B
:103E10000D21684602F070FE002516E01148FDF7FE
:103E2000FDFC1148007801280DD1FDF7FDFA87B29D
:103E3000002F04DD4FF4FA710C48FCF7C0F90020A4
:103E40000949087003E0681CC5B20A2DE6DB00BF13
:103E5000BDE8FF81AFAF0000AF800F02FF00FF0D94
:103E60000A000000400D030030000020E809002097
:103E70002DE9FF4106461FA30FCB8DE80F0000245C
:103E8000002500278DF8086000BF05E01DF805003B
:103E9000204484B2681CC5B20A2DF7DB2046E11726
:103EA00004EB11610912A4EB0121C9B28DF80A10CB
:103EB0000D21684602F020FE002516E01148FDF7AE
:103EC000ADFC1148007801280DD1FDF7ADFA87B29D
:103ED000002F04DD4FF4FA710C48FCF770F9002054
:103EE0000949087003E0681CC5B20A2DE6DB00BF73
:103EF000BDE8FF81AFAF0000AF800D02FF00FF0DF6
:103F00000A000000400D030030000020E8090020F6
:103F10002DE9FF41064621A30FCB8DE80F000024B9
:103F20000025002730128DF80800F0B28DF8090046
:103F300000BF05E01DF80500204484B2681CC5B22E
:103F40000A2DF7DB2046E11704EB11610912A4EBFF
:103F50000121C9B28DF80A100D21684602F0CCFD8E
:103F6000002516E01148FDF759FC1148007801289A
:103F70000DD1FDF759FA87B2002F04DD4FF4FA7125
:103F80000C48FCF71CF900200949087003E0681C84
:103F9000C5B20A2DE6DB00BFBDE8FF81AFAF000070
:103FA000AF801302FFFFFF0D0A000000400D030069
:103FB00030000020E80900202DE9FF4106461FA33C
:103FC0000FCB8DE80F000024002500278DF8086036
:103FD00000BF05E01DF80500204484B2681CC5B28E
:103FE0000A2DF7DB2046E11704EB11610912A4EB5F
:103FF0000121C9B28DF80A100D21684602F07CFD3E
:10400000002516E01148FDF709FC11480078012849
:104010000DD1FDF709FA87B2002F04DD4FF4FA71D4
:104020000C48FCF7CCF800200949087003E0681C34
:10403000C5B20A2DE6DB00BFBDE8FF81AFAF0000CF
:10404000AF801502FF00FF0D0A000000400D0300C5
:1040500030000020E80900202DE9FF4106461FA39B
:104060000FCB8DE80F000024002500278DF8086095
:1040700000BF05E01DF80500204484B2681CC5B2ED
:104080000A2DF7DB2046E11704EB11610912A4EBBE
:104090000121C9B28DF80A100D21684602F02CFDED
:1040A000002516E01148FDF7B9FB114800780128FA
:1040B0000DD1FDF7B9F987B2002F04DD4FF4FA7185
:1040C0000C48FCF77CF800200949087003E0681CE4
:1040D000C5B20A2DE6DB00BFBDE8FF81AFAF00002F
:1040E000AF801702FF00FF0D0A000000400D030023
:1040F00030000020E809002010B500F001F810BDE4
:104100000CB50020019000903248006840F48030E7
:104110003049086000BF2F48006800F4003000906C
:104120000198401C0190009818B90198B0F5A06F53
:10413000F1D12848006810F4003F02D0012000901F
:1041400001E0002000900098012842D12248006838
:1041500040F01000204908600846006820F0030085
:1041600008600846006840F002000860194840688E
:10417000184948600846406848600846406840F46E
:10418000806048600846406820F47C10486008461B
:10419000406840F4E81048600846006840F08070CD
:1041A000086000BF0B48006810F0007FFAD0094893
:1041B000406820F00300074948600846406840F026
:1041C0000200486000BF0348406800F00C00082867
:1041D000F9D10CBD001002400020024010B500F0E3
:1041E00007F84FF47A7002F01BFDFDF7DDF910BD02
:1041F00010B50021602002F0D9FD602002F055FAD0
:104200000221612002F0D2FD612002F04EFA32213B
:104210000F2002F0CBFD0F2002F047FA1C211420E2
:1042200002F0C4FD142002F040FAED21622002F0F9
:10423000BDFD622002F039FA8021632002F0B6FD54
:10424000632002F032FAB821642002F0AFFD64204E
:1042500002F02BFA1421652002F0A8FD652002F07F
:1042600024FA8F21662002F0A1FD662002F01DFADB
:104270000821672002F09AFD672002F016FA322129
:10428000692002F093FD692002F00FFA1F216A20D5
:1042900002F08CFD6A2002F008FA40216B2002F047
:1042A00085FD6B2002F001FA0621682002F07EFDF8
:1042B000682002F0FAF90F216C2002F077FD6C20E3
:1042C00002F0F3F91C216D2002F070FD6D2002F068
:1042D000ECF926216E2002F069FD6E2002F0E5F96E
:1042E00027216F2002F062FD6F2002F0DEF9072126
:1042F000702002F05BFD702002F0D7F910217120D0
:1043000002F054FD712002F0D0F91E21722002F05B
:104310004DFD722002F0C9F91221732002F046FD12
:10432000732002F0C2F90221742002F03FFD7420D4
:1043300002F0BBF90521752002F038FD752002F06E
:10434000B4F90521762002F031FD762002F0ADF9B6
:104350000A21772002F02AFD772002F0A6F9042135
:10436000782002F023FD782002F09FF908217920BF
:1043700002F01CFD792002F098F900217A2002F069
:1043800015FD7A2002F091F910BD10B500F002FA87
:1043900010BD000030B51A4800681A4AB0FBF2F1AF
:1043A000B1F1807F01D301201DE021F07F40401E4C
:1043B0004FF0E022506150170F22002807DA130750
:1043C0001D0E114B00F00F04241F1D5503E01307B1
:1043D0001C0E0E4B1C5400BF00204FF0E0229061D9
:1043E00007201061002008B100BFFEE74FF0E02079
:1043F000006920F001004FF0E021086130BD0000AD
:104400000000002040420F0018ED00E000E400E052
:1044100010B51348006840F00100114908600846D3
:104420004068104908400E494860084600680E4937
:1044300008400B4908600846006820F480200860A6
:104440000846406820F4FE0048604FF41F00886072
:10445000FFF752FE4FF000600449086010BD0000F5
:10446000001002400000FFF8FFFFF6FE08ED00E03C
:1044700010B501210F4800F029F9C8B101210D48FC
:1044800000F020F8002201210A4800F030F9002154
:10449000084800F01AF8074800F024F801200649FF
:1044A0000870064800780649087000200349087023
:1044B00010BD0000000400408F0000208D0000208F
:1044C00091000020CA430282704721B1028842F065
:1044D0000102028004E002884FF6FE731A40028057
:1044E0007047000010B504466848844208D1012195
:1044F000C014FEF781FA0021E014FEF77DFAC4E053
:10450000B4F1804F08D101210846FEF755FA002189
:104510000120FEF751FAB8E05D48844208D101213C
:104520000220FEF749FA00210220FEF745FAACE02E
:104530005848844208D101210420FEF73DFA0021A9
:104540000420FEF739FAA0E05348844208D1012143
:104550000820FEF731FA00210820FEF72DFA94E03A
:104560004E48844208D101211020FEF725FA00218F
:104570001020FEF721FA88E04948844208D1012141
:104580002020FEF719FA00212020FEF715FA7CE022
:104590004448844208D101214014FEF72DFA00213D
:1045A0006014FEF729FA70E03F48844209D10121E6
:1045B000C804FEF721FA00214FF40020FEF71CFA90
:1045C00063E03A48844209D101210805FEF714FA54
:1045D00000214FF48010FEF70FFA56E03448844271
:1045E00009D101214805FEF707FA00214FF4001018
:1045F000FEF702FA49E02F48844208D10121402009
:10460000FEF7DAF900214020FEF7D6F93DE02A480E
:10461000844208D101218020FEF7CEF900218020BC
:10462000FEF7CAF931E02548844208D101218015FE
:10463000FEF7C2F90021A015FEF7BEF925E02048DB
:10464000844209D101210804FEF7D6F900214FF474
:104650008030FEF7D1F918E01A48844209D10121CF
:104660004804FEF7C9F900214FF40030FEF7C4F901
:104670000BE01548844208D101218804FEF7BCF9FB
:1046800000214FF48020FEF7B7F910BD002C014047
:104690000004004000080040000C004000100040F2
:1046A0000014004000340140004C01400050014023
:1046B0000054014000180040001C00400020004051
:1046C00000400140004401400048014030B502462E
:1046D000002000230024158A05EA0103958905EAD4
:1046E000010413B10CB1012000E0002030BD1AB16B
:1046F00083890B43838102E083898B4383817047E5
:1047000030B587B00446FEF773FA14A001F05CFBE5
:10471000FEF710FBE07B00F5FA600590A07B0490AB
:10472000607B0390207B0290E07A0190A07A009059
:104730006846FDF7FBFD684602F09EF90546FEF768
:10474000DBFAFEF7F7FA4AF2A5510420FCF742FB28
:10475000FEF7F0FAFEF766F907B030BD0D0AC9E8BA
:10476000B1B8B8F9BEDDCFC2B7A2C5E4D6C3BDF8B3
:10477000D0D0D0A3CAB12E2E2E2E0D0A00000000DC
:1047800070B504460D4604F5E1462946304602F070
:1047900079FA70BD0448006820B103480068401EE3
:1047A0000149086070470000440000202DE9FF4FD8
:1047B000ADF5637D8046894693460027BA460024BE
:1047C0000020E29000250026E1900890049098F8DF
:1047D0000E1098F80D0001EB00201FFA80FA98F8EF
:1047E0000A00022802D10120FE49087040F28471BB
:1047F000AAEB01008A457DD00ADCBAF5C27F0ED053
:10480000BAF5617F77D0AAF5A060843874D1FDE352
:10481000B0F5007F71D0B0F5407FF7D1F7E3F2A09B
:1048200001F0D2FAA9F800A098F8031098F8020055
:1048300001EB00200C38C7B2062F7CDD08F1100018
:10484000E1900024AAE1E19EE19E306802F078F94F
:10485000EF4A811A904278D008DCA0F180500A38E3
:104860006BD047280AD0582868D1A5E0A1F560612F
:10487000FB397DD0E7480818F6D10AE1E448B4389E
:1048800002F05EF904EB440101EB04110AAA02EB09
:1048900041010860062004EB440101EB041102EB26
:1048A00041018880FEF7DEF90890DB490898FFF7A0
:1048B00067FFD948017804EB440000EB04100AAA12
:1048C00002EB4000C172D448017904EB440000EBD4
:1048D000041002EB40008172CF48017A04EB4400DF
:1048E00000EB041002EB40004172CB48017B04EB6B
:1048F000440003E0FEE361E1FDE3FDE300EB0410AF
:1049000002EB40000172C448017C04EB440000EB60
:10491000041002EB4000C171BF48007DA0F5FA60B1
:1049200004EB440101EB041102EB4101887106F133
:104930000C00E19003E035E107E074E028E1A7F125
:104940000C00C7B2601CC4B227E1B14802F0F8F80D
:1049500004EB440101EB04110AAA02EB41010860D7
:10496000022004EB440101EB041102EB410100E0E1
:10497000DAE0888000250CE0A848415D04EB4400A3
:1049800000EB04100AAA02EB4000801D4155681C90
:10499000C5B204EB440000EB04100AA901EB40008F
:1049A0008088A842E8DC06F10800E190A7F1080041
:1049B000C7B2601CC4B2F0E09548A33802F0C0F85A
:1049C00004EB440101EB04110AAA02EB4101086067
:1049D000022004EB440101EB041102EB4101888049
:1049E00000250DE08D48801C415D04EB440000EB88
:1049F00004100AAA02EB4000801D4155681CC5B294
:104A000004EB440000EB04100AA901EB400080888D
:104A1000A842E7DC06F10800E190A7F10800C7B260
:104A2000601CC4B2B9E07A48FB3802F089F804EBA4
:104A3000440101EB04110AAA02EB410108600120C4
:104A400004EB440101EB041102EB410188800025D5
:104A50000EE072483E3890F8451004EB440000EB3D
:104A600004100AAA02EB4000801D4155681CC5B223
:104A700004EB440000EB04100AA901EB400080881D
:104A8000A842E6DCF01DE190F81FC7B2601CC4B27A
:104A900083E0072006AB00220090614801780120E6
:104AA000FCF738FE9DF819109DF8180001EB002066
:104AB00081B205915B490A88059901EBC221A1F1F8
:104AC0006C5002F03DF804EB440101EB04110AAA1A
:104AD00002EB41010860042004EB440101EB0411E6
:104AE00002EB4101888000250DE0A81C06A9095CA5
:104AF00004EB440000EB04100AAA02EB4000801D06
:104B00004155681CC5B204EB440000EB04100AA92F
:104B100001EB40008088A842E7DCF01DE190F81F1F
:104B2000C7B2601CC4B238E04FF0102002F008F8A1
:104B300004EB440101EB04110AAA02EB41010860F5
:104B4000012004EB440101EB041102EB41018880D8
:104B500000250CE0FDF7FCF804EB440101EB041127
:104B60000AAA02EB4101891D4855681CC5B204EB35
:104B7000440000EB04100AA901EB40008088A84221
:104B8000E8DCF01DE190F81FC7B2601CC4B204E07D
:104B9000701CE190781EC7B200BF00BF062F3FF720
:104BA00052AE0994002020490870204BCDF800B087
:104BB0000AA90220099AFEF72BFCD9E21CA001F0F9
:104BC00003F9A9F800A098F8031098F8020001EB87
:104BD00000200C38C7B2062F74DD08F11000E190F8
:104BE00000241EE27D0000200D0AB7FECEF1C6F7BC
:104BF000B2E9D1AFCAFDBEDDB5C4474554524551F7
:104C000055455354C7EBC7F32E2E2E0D0A00000056
:104C100005010010FF0F00F06C07002021010020AB
:104C200031000020A40000203000002040060020B9
:104C30000D0AB7FECEF1C6F7CFC2B7A2B2CECAFDFB
:104C4000C7EBC7F3534554524551554553542E2E87
:104C50002E0D0A00E19EE19E306801F071FFF64AD8
:104C6000811A90427BD006DCA0F180500A3877D0C0
:104C7000472876D106E0A32975D0A1F570619E3949
:104C8000F7D17CE1B079ED49C873F0798873307A57
:104C90004873707A0873B07AC872F07A8872E649FD
:104CA0001139E7A001F090F8E448807AE349C97A25
:104CB000E24A127BCDE900210290E048437B827BEF
:104CC000C17B00E0B0E1E4A001F07EF8DB48807B2E
:104CD0000C2812DCD948407B1F280EDCD748007B0B
:104CE00017280ADCD548C07A3C2806DCD348807AED
:104CF0003C2802DCD148FFF703FDCF491139CCA88D
:104D000040F82410084601F01BFF04EB440101EBBE
:104D100004110AAA02EB41010860062004EB4401D9
:104D200001EB041102EB4101888000250CE0A81D75
:104D3000315C04EB440000EB04100AAA02EB4000D3
:104D4000801D4155681CC5B2062DF0DB06F10C0034
:104D5000E190A7F10C00C7B2601CC4B260E160E052
:104D6000BCE058E1FFE7F179B07901EB0020B349ED
:104D70000880B079C54981F83E00F179C34880F8D0
:104D80003F10AD49A331AEA001F01EF8AB48018839
:104D9000BFA001F019F8A9480088002801DD012012
:104DA00000E000203C280ADCBF48FCF737FD022168
:104DB000B6483E3000F0A2FDBB48FCF72FFD9E49EF
:104DC000A331CCA840F82410084601F0B9FE04EB4A
:104DD000440101EB04110AAA02EB41010860022020
:104DE00004EB440101EB041102EB41018880002532
:104DF0000CE0A81D315C04EB440000EB04100AAA8F
:104E000002EB4000801D4155681CC5B2022DF0DB4D
:104E100006F10800E190A7F10800C7B2601CC4B217
:104E2000FEE0F179B07901EB002084494880B07947
:104E3000964981F84000F179944880F841107E4904
:104E40007FA000F0C1FF7D48418898A000F0BCFF22
:104E50007A484088002801DD012000E00020B0F5FC
:104E6000B46F0ADC9048FCF7D9FC03218748403036
:104E700000F044FD8C48FCF7D1FC6F49CCA840F809
:104E80002410084601F05CFE04EB440101EB041120
:104E90000AAA02EB41010860022004EB440101EB85
:104EA000041102EB4101888000250CE0A81D315C53
:104EB00004EB440000EB04100AAA02EB4000801D42
:104EC0004155681CC5B2022DF0DB06F10800E190E7
:104ED000A7F10800C7B2601CC4B2A1E0B07957497D
:104EE000C8715549583956A000F06EFF5348C17932
:104EF00074A000F069FF5148C079012801DB01204E
:104F000000E000200A280ADA6748FCF787FC0A213B
:104F10004A48C01D00F0F2FC6348FCF77FFC46499C
:104F20005839CCA840F82410084601F009FE04EBDB
:104F3000440101EB04110AAA02EB410108600120BF
:104F400004EB440101EB041102EB410188800025D0
:104F50000CE0A81D315C04EB440000EB04100AAA2D
:104F600002EB4000801D4155681CC5B2012DF0DBED
:104F7000F01DE190F81FC7B2601CC4B250E0B079D8
:104F800004900498FFF718F84FF010212CA000F0BF
:104F90001BFF52A0049900F017FF4FF0102001F002
:104FA000CFFD04EB440101EB04110AAA02EB41011D
:104FB0000860012004EB440101EB041102EB410104
:104FC0008880FCF7C5FE01460498814201D000208C
:104FD000049000250BE004EB440101EB04110AAA44
:104FE00002EB4101891D04984855681CC5B204EBC9
:104FF000440000EB04100AA901EB40008088A8429D
:10500000E9DCF01DE190F81FC7B201E08AE098E00A
:10501000601CC4B204E0701CE190781EC7B200BFEF
:1050200000BF062F3FF716AE002C66DD142C64DCA3
:105030008DF88243099463E062000010A400002010
:105040000D0ABDD3CAD5B5C44F4944CEAAA3BA25CB
:1050500034780D0A000000000D0A2DC4EA2DD4C2D8
:105060002DC8D52DCAB12DB7D62DC3EBA3BA2D258A
:10507000642D2D25642D2D25642D2D25642D2D25A4
:10508000642D2D25642D2D2E0D0A0000E300002037
:105090000D0A2D2D2DB2C9BCAFD6DCC6DA3A2D25AE
:1050A000642D2D2D2E0D0A00A08601000D0A2DC99C
:1050B000CFB1A8D6DCC6DA3A2D25642D2D2D2E0DC4
:1050C0000A0000000D0A2D5265747279204E756D2C
:1050D0002D25782D2D2D2E0D0A0000000D0A2D4EA8
:1050E0006574576F726B2049442D25782D2D2D2E18
:1050F0000D0A00001CE03AE020E007208DF8820352
:1051000000201E4908701EA000F05EFE22A000F0E4
:105110005BFE2B4BCDF800B00AA90220099AFEF7DE
:1051200077F925E027A000F04FFEA9F800A01FE0C6
:105130002BA000F049FEA9F800A019E0A9F800A0F2
:1051400016E0A9F800A00D480078012803D15846C0
:10515000E699FCF7E3F92FA000F036FE184B002289
:1051600011460B20CDF800B0FEF752F900E000BF69
:1051700000BF0DF5677DBDE8F08F00003000002016
:105180000D0AC5E4D6C3D0C5CFA2B8FCD0C2B3C9FE
:10519000B9A6210D0A0000000D0ABDF8D0D0B7FE57
:1051A000CEF1C6F7CFC2B7A2C5E4D6C3B5C4BBD84B
:1051B000D3A6474554524553504F4E530D0A000055
:1051C000400600200D0ABDD3CAD5B7FECEF1C6F702
:1051D000CAFDBEDDC9CFB1A8BBD8B8B42E0D0A0038
:1051E0000D0A52656365697665204F6E6C696E6560
:1051F00020526573706F6E736520436F6D6D616EC5
:10520000642066726F6D205365727665722E0D0A8A
:10521000000000000D0AB7A2CBCDB7FECEF1C6F755
:10522000BBBDD0D1CFECD3A657414B4555505245CD
:1052300053504F4E53450D0A0000000010B540F288
:1052400025511A4800F094FA08B340F22551174846
:1052500000F045FA16480078632806D115A000F042
:10526000B3FD00201249087011E0104800F03CFB2B
:10527000C1B20F480478601C0D4A107015480155E2
:1052800000BF2021094800F073FA0128F9D0082155
:10529000064800F060FA012806D10821034800F012
:1052A00015FA024800F020FB10BD0000004C004041
:1052B0008D0000200D0A554152543420526563651B
:1052C00069766520427566662046756C6C21210DF5
:1052D0000A0000002310002008B54FF4A060FDF77D
:1052E000F5F825208DF8000003208DF8010000203E
:1052F0008DF8020001208DF803006846FDF7ACF838
:1053000026208DF8000001208DF8010000208DF886
:10531000020001208DF803006846FDF79DF8272064
:105320008DF8000001208DF8010000208DF80200AA
:1053300001208DF803006846FDF78EF834208DF8C3
:10534000000002208DF8010001208DF802008DF888
:1053500003006846FDF780F835208DF80000032033
:105360008DF801008DF8020001208DF803006846D9
:10537000FDF772F808BD000000B585B0012144F2C8
:105380000400FDF729FB4FF40070ADF81000182061
:105390008DF8130003208DF8120004A92B48FCF7A8
:1053A00041FC4FF48060ADF8100004208DF813002C
:1053B00004A92648FCF736FC8020ADF81000102028
:1053C0008DF8130004A92148FCF72CFC4FF48070E1
:1053D000ADF8100010208DF8130004A91B48FCF74D
:1053E00021FC4FF40060ADF8100010208DF8130080
:1053F00004A91648FCF716FC4FF48050ADF81000D5
:1054000010208DF8130004A91048FCF70BFC4FF492
:10541000165000900020ADF80400ADF80600ADF87D
:105420000800ADF80C000C20ADF80A0069460848E9
:1054300000F0EEF940F22661054800F050F9012134
:10544000034800F05BF905B000BD00000008014012
:105450000038014010B51A480088A0F580712B393A
:1054600002D100201649088040F22551154800F06D
:105470007FF9B8B140F22551124800F030F91148D7
:1054800000F032FAC1B20E4802880088401C0C4B72
:1054900018800D48815400BF20210A4800F068F9A7
:1054A0000128F9D00821074800F055F9012806D154
:1054B0000821044800F00AF9024800F015FA10BD6E
:1054C0002E000020003801402C01002000B585B0DE
:1054D00001214804FDF760FA01210420FDF77CFA60
:1054E0000420ADF8100018208DF8130003208DF86B
:1054F000120004A91848FCF795FB0820ADF810002D
:1055000004208DF8130004A91348FCF78BFB4FF41B
:10551000165000900020ADF80400ADF80600ADF87C
:105520000800ADF80C000C20ADF80A0069460B48E5
:1055300000F06EF9012240F22441084800F042F9DF
:1055400001224021054800F0E5F80121034800F060
:10555000D5F805B000BD000000080140004400403F
:1055600000B58BB001210846FDF706FA12480090FD
:1055700012480190002002904FF4FA70039000202E
:10558000049080200590002006900790202008902D
:10559000C001099000200A9069460948FBF726FFE0
:1055A00001210748FBF76CFE0020064908604860AF
:1055B00088600BB000BD000004440040E8090020F2
:1055C0006C000240DC0B002010B5002440F22441A6
:1055D0000F4800F0CDF8C8B10D480488001D0488BC
:1055E00040F22441001F00F07AF800210948FBF73F
:1055F00047FE002240F22441074800F0E3F8012072
:105600000649087001210348FBF73AFE10BD00006F
:10561000004400406C000240004800403000002080
:1056200000B585B00121C804FDF7B6F901211120AC
:10563000FDF7D2F94FF40070ADF8100010208DF88E
:10564000130004A91F48FCF7EDFA4FF48060ADF891
:10565000100018208DF8130003208DF8120004A903
:105660001848FCF7DFFA4FF40060ADF81000042092
:105670008DF8130004A91348FCF7D4FA4FF4164030
:1056800000900020ADF80400ADF80600ADF8080069
:10569000ADF80C000C20ADF80A0069460A4800F08D
:1056A000B7F8012240F22551074800F08BF840F28C
:1056B0002661054800F013F80121034800F01EF8A8
:1056C00005B000BD00100140004C004001F4007224
:1056D000B2F5007F00D100BFCA430280704710B509
:1056E00000220023A1F510646A3C00D100BF0A1219
:1056F00001249440A3B2DC43048010BD21B182890F
:1057000042F40052828104E082894DF6FF731A4010
:10571000828170471AB1838A0B43838202E0838AB5
:105720008B43838270472DE9F04107460D461646AC
:1057300000240CE0295D384600F0DBF800BF402172
:10574000384600F008F80028F9D0601C84B2B44252
:10575000F0DBBDE8F08102460020B1F5007F00D10A
:1057600000BF13880B4201D0012000E000207047E9
:1057700070B502460024002300250020A1F5106624
:105780006A3E00D100BFC1F3421501F01F0301269C
:1057900006FA03F3012D02D19689334006E0022D6B
:1057A00002D1168A334001E0968A33400C1201265A
:1057B00006FA04F41688344013B10CB1012000E05D
:1057C000002070BDF0B5034600240026002500200F
:1057D000A1F510676A3F00D100BF1846C1F342141B
:1057E00001F01F06012707FA06F5012C01D10C3044
:1057F00004E0022C01D1103000E014301AB1076827
:105800002F43076002E00768AF430760F0BD000068
:105810002DE9F04786B005460E460024A24600BF9B
:10582000A1460027B08900B100BF2F462C8A4CF654
:10583000FF700440F08804432C82AC894EF6F310CC
:105840000440B08831890843718908430443AC811E
:10585000AC8A4FF6FF400440B0890443AC8201A8F3
:10586000FDF7EAF81F48874202D1DDF810A001E0F9
:10587000DDF80CA0A88910F4004F08D00AEBCA008C
:1058800000EB0A1031684900B0FBF1F807E00AEBC1
:10589000CA0000EB0A1031688900B0FBF1F86420FF
:1058A000B8FBF0F004012009642101FB1089A889EC
:1058B00010F4004F08D0322000EBC900B0FBF1F02B
:1058C00000F00700044308E0322000EB09106421D7
:1058D000B0FBF1F000F00F0004432C8106B0BDE8EE
:1058E000F08700000038014001468888C0F30800B6
:1058F0007047C1F308028280704700002DE9F84329
:1059000005460E4600240027B01E0A2874D2DFE8A0
:1059100000F00522354B8096A7C5E3F7002404E08C
:105920008248FBF77BFF601CC4B22846FAF752FCA2
:10593000A042F5D802202B460022014600901046D6
:10594000FBF718FF01207A4908747AA000F03CFAAE
:105950000120BDE8F8837548FBF760FF02202B4665
:105960000022032100901046FBF704FF012070493C
:10597000087476A000F028FA0120EAE72846FAF732
:1059800029FC1FFA80F82B46002204211046CDF88E
:105990000080FBF7EFFE012065490874294671A0DD
:1059A00000F012FA0120D4E7002400270EE0285D61
:1059B000302802DB285D392806DD285D2E2802D13B
:1059C000781CC7B200E006E0601CC4B22846FAF7B3
:1059D00001FCA042EBD800BF032F0ED12846FAF7F6
:1059E000F9FB1FFA80F82B46002205211046CDF85E
:1059F0000080FBF7BFFE03E093E061A000F0E4F954
:105A000001204B490874294664A000F0DDF901200B
:105A10009FE72846FAF7DEFB1FFA80F82B460022A4
:105A200006211046CDF80080FBF7A4FE0120404976
:105A3000087429465EA000F0C7F9012089E7042018
:105A40002B460022072100901046FBF793FE012011
:105A50003749087429465CA000F0B6F9012078E7C0
:105A6000002405E0295D60A000F0AEF9601CC4B21E
:105A70002846FAF7AFFBA042F4D802202B460022BA
:105A8000082100901046FBF775FE01202849087494
:105A900029465CA000F098F901205AE7002405E0AF
:105AA000295D51A000F090F9601CC4B22846FAF7B5
:105AB00091FBA042F4D802202B460022092100903D
:105AC0001046FBF757FE012019490874294654A0D7
:105AD00000F07AF901203CE71448FBF79FFE012013
